:100C5E0050726F6A656374206279005361696B69C3
:100C6E0072616E0041646974796120200044697379
:080C7E0074616E63653A200009
:0B0CD700EF1FAC0670011E4C70F622EF
:080C3600C2A1D2A27F017E00E1
:100C3E00E4FDFCC3ED9FEC9E5015E4FBFA0BBB00EC
:0F0C4E00010ABA04F8BBFBF50DBD00010C80E4F0
:010C5D002274
:0A0CE2008F90C2A0120C36C2A222AD
:0A0CEC008F90D2A0120C36C2A22293
:100CAB007F38120CE27F0E120CE27F01120CE27FF6
:040CBB0080020CE2C5
:100C86008B1A8A1B891CAB1AAA1BA91C120ABD60E7
:100C960013051CE51C7002051B14F9120ABDFF1290
:050CA6000CEC80E222CD
:0C0CBF007F01120CE27F027E00020C3E5E
:100BF200C2B17F0A7E00120CD7D2B17F0A7E0012E8
:100C02000CD7C2B130B0FDD28C20B0FDC28CAF8CFB
:100C1200EFFEAD8AEDFFAC06E4120A037B967A433F
:100C2200798B783C1208F8E4FBFA7980783F120855
:040C320007020A3C6F
:100B3900758901120CAB120CBF7F80120CE27BFF8E
:100B49007A0C795E120C867FC0120CE27BFF7A0C5C
:100B59007969120C867FF47E01120C3E7FC0120C5B
:100B6900E27BFF7A0C7972120C867FF47E01120CFB
:100B79003E120CBFE4F58CF58A120BF28E088F0930
:100B89007F80120CE27BFF7A0C797B120C86AE080F
:100B9900AF097C007D64120AD67C007D0A120AD650
:100BA900ED2430F50AAE08AF097C007D0A120AD699
:100BB9007C007D0A120AD6ED2430F50BAE08AF0988
:100BC9007C007D0A120AD6ED2430F50C750D2075CE
:100BD9000E63750F6DE4F510FB7A00790A120C8625
:090BE9007FC87E00120C3E808BD7
:10080000020AA8E86480F8E933E83360110460F074
:10081000ED33EC337009E8FCE9FDEAFEEBFF22045E
:1008200060DED3EB9FEA9EE99DE8C2E78CF0C2F759
:1008300095F0400CE8CCF8E9CDF9EACEFAEBCFFB25
:10084000120A7385D0F05804700320D5B3E8047001
:10085000075002B2D5020AB292D5EC0460F7E4CC9C
:10086000C0E0C398F8603B94186008400DD0E0FBEE
:10087000020A8AE4FBFAC9FC8028E830E406E4C9ED
:10088000FBE4CAFCE830E305E4C9CACBFCE8540742
:100890006010F8C3E913F9EA13FAEB13FBEC13FC4D
:1008A000D8F130F52FC3E49CFCEF9BFFEE9AFEEDF0
:1008B00099FDD0E0FBEF4E4D4C701222DB03020A93
:1008C000AFEC2CFCEF33FFEE33FEED33FDED30E704
:1008D000EB020A8AEF2BFFEE3AFEED39FDD0E0FB8A
:1008E00050130BBB0003020AB2ED13FDEE13FEEF33
:0808F00013FFEC13FC020A8A5D
:1008F800EC4D6011E8497017ED33EC3304600DE4FA
:10090800FCFFFEFD22E933E8330470F8020AA8125E
:100918000A7358046009E4CC24815006285009025F
:100928000AB2284003020AAFC0E0EB4A7044B9801B
:1009380006D0E0FB020A9EEF4E701CBD8008EBFF5C
:10094800EAFEE9FD80EBE98DF0A4FEE5F00209E19D
:10095800E9CDF9EAFEEBFFEF89F0A4FCE5F0CE89DA
:10096800F0A42EFFE435F0CD89F0A42DFEE435F097
:100978008067EF4E7005BD80D780C3EF8BF0A4ACC5
:10098800F0EE8BF0A42CFCE435F0F8EF8AF0A42C00
:10099800E5F038FCE433CB8DF0A42CFCE5F03BF813
:1009A800EE8AF0A42CFCE5F038F8E433CF89F0A403
:1009B8002CFCE5F038CF3400CE89F0A42FFFE5F009
:1009C8003EFEE433C98DF0A42EFEE5F039CD8AF061
:1009D800A42FFFE5F03EFEE43DFD33D0E0FB5007D9
:1009E8000BBB000F020AB2EC2CFCEF33FFEE33FE18
:0609F800ED33FD020A8A46
:1009FE0075F020800E75F010800575F0087D007E74
:100A0E00007F003392D530D503120B2BEC33401000
:100A1E00EF33FFEE33FEED33FDEC33FCD5F0ED227C
:0E0A2E00E5F0247EA2D513CC92E7CDCEFF22B8
:100A3C00EDD2E7CD33EC3392D524814006E4FFFEB2
:100A4C00FDFC22FCE4CFCECDCC24E0501174FF8011
:100A5C00EDC3CC13CCCD13CDCE13CECF13CF0470AE
:070A6C00F030D5DE020B2B78
:100A7300E9D2E7C933E833F892D5EDD2E7CD33ECC9
:070A830033FC5002B2D52242
:100A8A00EC30E7100FBF000C0EBE00080DBD0004CD
:100A9A000BEB6014A2D5EB13FCED92E7FD2274FF79
:100AAA00FCFDFEFF22E480F8A2D574FF13FC7D80D2
:030ABA00E480EFE6
:03000000020CCB24
:0C0CCB00787FE4F6D8FD75811C020B391F
:100ABD00BB010689828A83E0225002E722BBFE0237
:090ACD00E32289828A83E493226A
:100AD600BC000BBE0029EF8DF084FFADF022E4CC04
:100AE600F875F008EF2FFFEE33FEEC33FCEE9DECCD
:100AF600984005FCEE9DFE0FD5F0E9E4CEFD22ED13
:100B0600F8F5F0EE8420D21CFEADF075F008EF2F5C
:100B1600FFED33FD4007985006D5F0F222C398FD4D
:050B26000FD5F0EA22EA
:0E0B2B00C3E49FFFE49EFEE49DFDE49CFC22DB
:00000001FF
